{
  "contractName": "IdentityVerification",
  "abi": [
    {
      "inputs": [],
      "stateMutability": "nonpayable",
      "type": "constructor"
    },
    {
      "anonymous": false,
      "inputs": [
        {
          "indexed": true,
          "internalType": "address",
          "name": "user",
          "type": "address"
        },
        {
          "indexed": false,
          "internalType": "uint256",
          "name": "timestamp",
          "type": "uint256"
        }
      ],
      "name": "IdentityRevoked",
      "type": "event"
    },
    {
      "anonymous": false,
      "inputs": [
        {
          "indexed": true,
          "internalType": "address",
          "name": "user",
          "type": "address"
        },
        {
          "indexed": false,
          "internalType": "string",
          "name": "identityHash",
          "type": "string"
        },
        {
          "indexed": false,
          "internalType": "uint256",
          "name": "timestamp",
          "type": "uint256"
        }
      ],
      "name": "IdentityVerified",
      "type": "event"
    },
    {
      "inputs": [],
      "name": "owner",
      "outputs": [
        {
          "internalType": "address",
          "name": "",
          "type": "address"
        }
      ],
      "stateMutability": "view",
      "type": "function",
      "constant": true
    },
    {
      "inputs": [],
      "name": "totalVerified",
      "outputs": [
        {
          "internalType": "uint256",
          "name": "",
          "type": "uint256"
        }
      ],
      "stateMutability": "view",
      "type": "function",
      "constant": true
    },
    {
      "inputs": [
        {
          "internalType": "string",
          "name": "_identityHash",
          "type": "string"
        }
      ],
      "name": "verifyIdentity",
      "outputs": [],
      "stateMutability": "nonpayable",
      "type": "function"
    },
    {
      "inputs": [
        {
          "internalType": "address",
          "name": "_user",
          "type": "address"
        }
      ],
      "name": "getIdentity",
      "outputs": [
        {
          "internalType": "string",
          "name": "identityHash",
          "type": "string"
        },
        {
          "internalType": "uint256",
          "name": "timestamp",
          "type": "uint256"
        },
        {
          "internalType": "bool",
          "name": "isVerified",
          "type": "bool"
        }
      ],
      "stateMutability": "view",
      "type": "function",
      "constant": true
    },
    {
      "inputs": [
        {
          "internalType": "address",
          "name": "_user",
          "type": "address"
        }
      ],
      "name": "isVerified",
      "outputs": [
        {
          "internalType": "bool",
          "name": "",
          "type": "bool"
        }
      ],
      "stateMutability": "view",
      "type": "function",
      "constant": true
    },
    {
      "inputs": [
        {
          "internalType": "address",
          "name": "_user",
          "type": "address"
        }
      ],
      "name": "revokeIdentity",
      "outputs": [],
      "stateMutability": "nonpayable",
      "type": "function"
    },
    {
      "inputs": [],
      "name": "getTotalVerified",
      "outputs": [
        {
          "internalType": "uint256",
          "name": "",
          "type": "uint256"
        }
      ],
      "stateMutability": "view",
      "type": "function",
      "constant": true
    }
  ],
  "bytecode": "0x608060405234801561001057600080fd5b50600080546001600160a01b03191633179055610861806100326000396000f3fe608060405234801561001057600080fd5b506004361061007d5760003560e01c80638da5cb5b1161005b5780638da5cb5b146100d5578063a4e821c614610100578063b9209e3314610112578063fe9eba151461015157600080fd5b80630ebddd17146100825780632fea7b81146100975780637fa84046146100c2575b600080fd5b610095610090366004610532565b61015a565b005b6100aa6100a5366004610532565b610268565b6040516100b9939291906105a8565b60405180910390f35b6100956100d03660046105e8565b610373565b6000546100e8906001600160a01b031681565b6040516001600160a01b0390911681526020016100b9565b6003545b6040519081526020016100b9565b610141610120366004610532565b6001600160a01b031660009081526001602052604090206002015460ff1690565b60405190151581526020016100b9565b61010460035481565b6000546001600160a01b031633146101ae5760405162461bcd60e51b81526020600482015260126024820152712737ba1031b7b73a3930b1ba1037bbb732b960711b60448201526064015b60405180910390fd5b6001600160a01b03811660009081526001602052604090206002015460ff166102085760405162461bcd60e51b815260206004820152600c60248201526b139bdd081d995c9a599a595960a21b60448201526064016101a5565b6001600160a01b03811660008181526001602052604090819020600201805460ff19169055517f3e3c59bb369a9da1f5c9df74adb044e1181c4e20448838f42d9e860bb0a18cdb9061025d9042815260200190565b60405180910390a250565b6001600160a01b03811660009081526001602052604080822081516080810190925280546060939283928392829082906102a190610699565b80601f01602080910402602001604051908101604052809291908181526020018280546102cd90610699565b801561031a5780601f106102ef5761010080835404028352916020019161031a565b820191906000526020600020905b8154815290600101906020018083116102fd57829003601f168201915b5050509183525050600182015460208083019190915260029092015460ff811615156040808401919091526101009091046001600160a01b03166060909201919091528251918301519201519097919650945092505050565b3360009081526001602052604090206002015460ff16156103c95760405162461bcd60e51b815260206004820152601060248201526f105b1c9958591e481d995c9a599a595960821b60448201526064016101a5565b60008151116104115760405162461bcd60e51b8152602060048201526014602482015273486173682063616e6e6f7420626520656d70747960601b60448201526064016101a5565b6040805160808101825282815242602080830191909152600182840181905233606084018190526000908152915291909120815181906104519082610722565b5060208201516001808301919091556040830151600292830180546060909501516001600160a01b031661010002610100600160a81b0319921515929092166001600160a81b031990951694909417179092558054918201815560009081527f405787fa12a823e0f2b7631cc41b3ba8828b3321ca811111fa75cd3aa3bb5ace90910180546001600160a01b0319163317905560038054916104f2836107e2565b9190505550336001600160a01b03167f5d57bd940ff05dca0f7ab8f29a0dd87b33dad597a52d26003d642a4076e38bc2824260405161025d929190610809565b60006020828403121561054457600080fd5b81356001600160a01b038116811461055b57600080fd5b9392505050565b6000815180845260005b818110156105885760208185018101518683018201520161056c565b506000602082860101526020601f19601f83011685010191505092915050565b6060815260006105bb6060830186610562565b602083019490945250901515604090910152919050565b634e487b7160e01b600052604160045260246000fd5b6000602082840312156105fa57600080fd5b813567ffffffffffffffff8082111561061257600080fd5b818401915084601f83011261062657600080fd5b813581811115610638576106386105d2565b604051601f8201601f19908116603f01168101908382118183101715610660576106606105d2565b8160405282815287602084870101111561067957600080fd5b826020860160208301376000928101602001929092525095945050505050565b600181811c908216806106ad57607f821691505b6020821081036106cd57634e487b7160e01b600052602260045260246000fd5b50919050565b601f82111561071d57600081815260208120601f850160051c810160208610156106fa5750805b601f850160051c820191505b8181101561071957828155600101610706565b5050505b505050565b815167ffffffffffffffff81111561073c5761073c6105d2565b6107508161074a8454610699565b846106d3565b602080601f831160018114610785576000841561076d5750858301515b600019600386901b1c1916600185901b178555610719565b600085815260208120601f198616915b828110156107b457888601518255948401946001909101908401610795565b50858210156107d25787850151600019600388901b60f8161c191681555b5050505050600190811b01905550565b60006001820161080257634e487b7160e01b600052601160045260246000fd5b5060010190565b60408152600061081c6040830185610562565b9050826020830152939250505056fea2646970667358221220b8f8bffa1efd6fb2b4014004185650ea7a6ea6a12c644b47933212c536e315c964736f6c63430008130033",
  "immutableReferences": {},
  "source": "// SPDX-License-Identifier: MIT\r\npragma solidity ^0.8.0;\r\n\r\n/**\r\n * @title IdentityVerification\r\n * @dev Decentralized identity verification smart contract\r\n * @notice Stores cryptographic proofs of identity on-chain\r\n */\r\ncontract IdentityVerification {\r\n\r\n    //  Structs \r\n    struct Identity {\r\n        string identityHash;    // SHA-256 hash of user data (privacy preserved)\r\n        uint256 timestamp;      // Block timestamp of verification\r\n        bool verified;          // Verification status (renamed to avoid clash with isVerified function)\r\n        address verifiedBy;     // Address that submitted (usually the user themselves)\r\n    }\r\n\r\n    //  State Variables \r\n    address public owner;\r\n\r\n    // wallet address => Identity record\r\n    mapping(address => Identity) private identities;\r\n\r\n    // All verified addresses (for enumeration)\r\n    address[] private verifiedUsers;\r\n\r\n    // Total count\r\n    uint256 public totalVerified;\r\n\r\n    //  Events \r\n    event IdentityVerified(\r\n        address indexed user,\r\n        string identityHash,\r\n        uint256 timestamp\r\n    );\r\n\r\n    event IdentityRevoked(\r\n        address indexed user,\r\n        uint256 timestamp\r\n    );\r\n\r\n    //  Modifiers \r\n    modifier onlyOwner() {\r\n        require(msg.sender == owner, \"Not contract owner\");\r\n        _;\r\n    }\r\n\r\n    modifier notAlreadyVerified() {\r\n        require(!identities[msg.sender].verified, \"Already verified\");\r\n        _;\r\n    }\r\n\r\n    //  Constructor \r\n    constructor() {\r\n        owner = msg.sender;\r\n    }\r\n\r\n    //  Functions \r\n\r\n    /**\r\n     * @dev Submit identity hash for verification\r\n     * @param _identityHash SHA-256 hash of identity data (computed client-side)\r\n     */\r\n    function verifyIdentity(string memory _identityHash) external notAlreadyVerified {\r\n        require(bytes(_identityHash).length > 0, \"Hash cannot be empty\");\r\n\r\n        identities[msg.sender] = Identity({\r\n            identityHash: _identityHash,\r\n            timestamp: block.timestamp,\r\n            verified: true,\r\n            verifiedBy: msg.sender\r\n        });\r\n\r\n        verifiedUsers.push(msg.sender);\r\n        totalVerified++;\r\n\r\n        emit IdentityVerified(msg.sender, _identityHash, block.timestamp);\r\n    }\r\n\r\n    /**\r\n     * @dev Get identity record for a given address\r\n     * @param _user Wallet address to query\r\n     */\r\n    function getIdentity(address _user) external view returns (\r\n        string memory identityHash,\r\n        uint256 timestamp,\r\n        bool isVerified\r\n    ) {\r\n        Identity memory id = identities[_user];\r\n        return (id.identityHash, id.timestamp, id.verified);\r\n    }\r\n\r\n    /**\r\n     * @dev Check if an address is verified (quick boolean check)\r\n     */\r\n    function isVerified(address _user) external view returns (bool) {\r\n        return identities[_user].verified;\r\n    }\r\n\r\n    /**\r\n     * @dev Revoke identity (owner-only for compliance scenarios)\r\n     */\r\n    function revokeIdentity(address _user) external onlyOwner {\r\n        require(identities[_user].verified, \"Not verified\");\r\n        identities[_user].verified = false;\r\n        emit IdentityRevoked(_user, block.timestamp);\r\n    }\r\n\r\n    /**\r\n     * @dev Get total number of verified identities\r\n     */\r\n    function getTotalVerified() external view returns (uint256) {\r\n        return totalVerified;\r\n    }\r\n}\r\n",
  "sourcePath": "C:\\Users\\vkdee\\OneDrive\\Desktop\\project\\contracts\\IdentityVerification.sol",
  "compiler": {
    "name": "solc",
    "version": "0.8.19+commit.7dd6d404.Emscripten.clang"
  },
  "schemaVersion": "3.4.16",
  "updatedAt": "2026-02-25T11:11:59.324Z",
  "networkType": "ethereum",
  "devdoc": {
    "details": "Decentralized identity verification smart contract",
    "kind": "dev",
    "methods": {
      "getIdentity(address)": {
        "details": "Get identity record for a given address",
        "params": {
          "_user": "Wallet address to query"
        }
      },
      "getTotalVerified()": {
        "details": "Get total number of verified identities"
      },
      "isVerified(address)": {
        "details": "Check if an address is verified (quick boolean check)"
      },
      "revokeIdentity(address)": {
        "details": "Revoke identity (owner-only for compliance scenarios)"
      },
      "verifyIdentity(string)": {
        "details": "Submit identity hash for verification",
        "params": {
          "_identityHash": "SHA-256 hash of identity data (computed client-side)"
        }
      }
    },
    "title": "IdentityVerification",
    "version": 1
  },
  "userdoc": {
    "kind": "user",
    "methods": {},
    "notice": "Stores cryptographic proofs of identity on-chain",
    "version": 1
  }
}